{
  "@chainlink/contracts-ccip/contracts/libraries/Client.sol": {
    "Client": {
      "abi": [
        {
          "inputs": [],
          "name": "EVM_EXTRA_ARGS_V1_TAG",
          "outputs": [
            {
              "internalType": "bytes4",
              "name": "",
              "type": "bytes4"
            }
          ],
          "stateMutability": "view",
          "type": "function"
        },
        {
          "inputs": [],
          "name": "GENERIC_EXTRA_ARGS_V2_TAG",
          "outputs": [
            {
              "internalType": "bytes4",
              "name": "",
              "type": "bytes4"
            }
          ],
          "stateMutability": "view",
          "type": "function"
        },
        {
          "inputs": [],
          "name": "SVM_ACCOUNT_BYTE_SIZE",
          "outputs": [
            {
              "internalType": "uint256",
              "name": "",
              "type": "uint256"
            }
          ],
          "stateMutability": "view",
          "type": "function"
        },
        {
          "inputs": [],
          "name": "SVM_EXTRA_ARGS_MAX_ACCOUNTS",
          "outputs": [
            {
              "internalType": "uint256",
              "name": "",
              "type": "uint256"
            }
          ],
          "stateMutability": "view",
          "type": "function"
        },
        {
          "inputs": [],
          "name": "SVM_EXTRA_ARGS_V1_TAG",
          "outputs": [
            {
              "internalType": "bytes4",
              "name": "",
              "type": "bytes4"
            }
          ],
          "stateMutability": "view",
          "type": "function"
        },
        {
          "inputs": [],
          "name": "SVM_MESSAGING_ACCOUNTS_OVERHEAD",
          "outputs": [
            {
              "internalType": "uint256",
              "name": "",
              "type": "uint256"
            }
          ],
          "stateMutability": "view",
          "type": "function"
        },
        {
          "inputs": [],
          "name": "SVM_TOKEN_TRANSFER_DATA_OVERHEAD",
          "outputs": [
            {
              "internalType": "uint256",
              "name": "",
              "type": "uint256"
            }
          ],
          "stateMutability": "view",
          "type": "function"
        }
      ],
      "evm": {
        "bytecode": {
          "linkReferences": {},
          "object": "610254610052600b82828239805160001a6073146045577f4e487b7100000000000000000000000000000000000000000000000000000000600052600060045260246000fd5b30600052607381538281f3fe73000000000000000000000000000000000000000030146080604052600436106100875760003560e01c806371953f601161006557806371953f60146100e65780637498e355146101045780639713cbbd14610122578063a5dd87d81461014057610087565b80631ac428f81461008c5780633ab8c0d0146100aa5780635dd8ee3e146100c8575b600080fd5b61009461015e565b6040516100a191906101ad565b60405180910390f35b6100b2610163565b6040516100bf9190610203565b60405180910390f35b6100d061016e565b6040516100dd91906101ad565b60405180910390f35b6100ee610173565b6040516100fb91906101ad565b60405180910390f35b61010c610178565b6040516101199190610203565b60405180910390f35b61012a610183565b60405161013791906101ad565b60405180910390f35b610148610189565b6040516101559190610203565b60405180910390f35b604081565b6397a657c960e01b81565b600281565b602081565b63181dcf1060e01b81565b61012c81565b631f3b3aba60e01b81565b6000819050919050565b6101a781610194565b82525050565b60006020820190506101c2600083018461019e565b92915050565b60007fffffffff0000000000000000000000000000000000000000000000000000000082169050919050565b6101fd816101c8565b82525050565b600060208201905061021860008301846101f4565b9291505056fea2646970667358221220c0a0df215f1c0a33887d2f060ca54c1f64373ba07f3e913465f9c3613611dc5164736f6c634300081c0033",
          "opcodes": "PUSH2 0x254 PUSH2 0x52 PUSH1 0xB DUP3 DUP3 DUP3 CODECOPY DUP1 MLOAD PUSH1 0x0 BYTE PUSH1 0x73 EQ PUSH1 0x45 JUMPI PUSH32 0x4E487B7100000000000000000000000000000000000000000000000000000000 PUSH1 0x0 MSTORE PUSH1 0x0 PUSH1 0x4 MSTORE PUSH1 0x24 PUSH1 0x0 REVERT JUMPDEST ADDRESS PUSH1 0x0 MSTORE PUSH1 0x73 DUP2 MSTORE8 DUP3 DUP2 RETURN INVALID PUSH20 0x0 ADDRESS EQ PUSH1 0x80 PUSH1 0x40 MSTORE PUSH1 0x4 CALLDATASIZE LT PUSH2 0x87 JUMPI PUSH1 0x0 CALLDATALOAD PUSH1 0xE0 SHR DUP1 PUSH4 0x71953F60 GT PUSH2 0x65 JUMPI DUP1 PUSH4 0x71953F60 EQ PUSH2 0xE6 JUMPI DUP1 PUSH4 0x7498E355 EQ PUSH2 0x104 JUMPI DUP1 PUSH4 0x9713CBBD EQ PUSH2 0x122 JUMPI DUP1 PUSH4 0xA5DD87D8 EQ PUSH2 0x140 JUMPI PUSH2 0x87 JUMP JUMPDEST DUP1 PUSH4 0x1AC428F8 EQ PUSH2 0x8C JUMPI DUP1 PUSH4 0x3AB8C0D0 EQ PUSH2 0xAA JUMPI DUP1 PUSH4 0x5DD8EE3E EQ PUSH2 0xC8 JUMPI JUMPDEST PUSH1 0x0 DUP1 REVERT JUMPDEST PUSH2 0x94 PUSH2 0x15E JUMP JUMPDEST PUSH1 0x40 MLOAD PUSH2 0xA1 SWAP2 SWAP1 PUSH2 0x1AD JUMP JUMPDEST PUSH1 0x40 MLOAD DUP1 SWAP2 SUB SWAP1 RETURN JUMPDEST PUSH2 0xB2 PUSH2 0x163 JUMP JUMPDEST PUSH1 0x40 MLOAD PUSH2 0xBF SWAP2 SWAP1 PUSH2 0x203 JUMP JUMPDEST PUSH1 0x40 MLOAD DUP1 SWAP2 SUB SWAP1 RETURN JUMPDEST PUSH2 0xD0 PUSH2 0x16E JUMP JUMPDEST PUSH1 0x40 MLOAD PUSH2 0xDD SWAP2 SWAP1 PUSH2 0x1AD JUMP JUMPDEST PUSH1 0x40 MLOAD DUP1 SWAP2 SUB SWAP1 RETURN JUMPDEST PUSH2 0xEE PUSH2 0x173 JUMP JUMPDEST PUSH1 0x40 MLOAD PUSH2 0xFB SWAP2 SWAP1 PUSH2 0x1AD JUMP JUMPDEST PUSH1 0x40 MLOAD DUP1 SWAP2 SUB SWAP1 RETURN JUMPDEST PUSH2 0x10C PUSH2 0x178 JUMP JUMPDEST PUSH1 0x40 MLOAD PUSH2 0x119 SWAP2 SWAP1 PUSH2 0x203 JUMP JUMPDEST PUSH1 0x40 MLOAD DUP1 SWAP2 SUB SWAP1 RETURN JUMPDEST PUSH2 0x12A PUSH2 0x183 JUMP JUMPDEST PUSH1 0x40 MLOAD PUSH2 0x137 SWAP2 SWAP1 PUSH2 0x1AD JUMP JUMPDEST PUSH1 0x40 MLOAD DUP1 SWAP2 SUB SWAP1 RETURN JUMPDEST PUSH2 0x148 PUSH2 0x189 JUMP JUMPDEST PUSH1 0x40 MLOAD PUSH2 0x155 SWAP2 SWAP1 PUSH2 0x203 JUMP JUMPDEST PUSH1 0x40 MLOAD DUP1 SWAP2 SUB SWAP1 RETURN JUMPDEST PUSH1 0x40 DUP2 JUMP JUMPDEST PUSH4 0x97A657C9 PUSH1 0xE0 SHL DUP2 JUMP JUMPDEST PUSH1 0x2 DUP2 JUMP JUMPDEST PUSH1 0x20 DUP2 JUMP JUMPDEST PUSH4 0x181DCF10 PUSH1 0xE0 SHL DUP2 JUMP JUMPDEST PUSH2 0x12C DUP2 JUMP JUMPDEST PUSH4 0x1F3B3ABA PUSH1 0xE0 SHL DUP2 JUMP JUMPDEST PUSH1 0x0 DUP2 SWAP1 POP SWAP2 SWAP1 POP JUMP JUMPDEST PUSH2 0x1A7 DUP2 PUSH2 0x194 JUMP JUMPDEST DUP3 MSTORE POP POP JUMP JUMPDEST PUSH1 0x0 PUSH1 0x20 DUP3 ADD SWAP1 POP PUSH2 0x1C2 PUSH1 0x0 DUP4 ADD DUP5 PUSH2 0x19E JUMP JUMPDEST SWAP3 SWAP2 POP POP JUMP JUMPDEST PUSH1 0x0 PUSH32 0xFFFFFFFF00000000000000000000000000000000000000000000000000000000 DUP3 AND SWAP1 POP SWAP2 SWAP1 POP JUMP JUMPDEST PUSH2 0x1FD DUP2 PUSH2 0x1C8 JUMP JUMPDEST DUP3 MSTORE POP POP JUMP JUMPDEST PUSH1 0x0 PUSH1 0x20 DUP3 ADD SWAP1 POP PUSH2 0x218 PUSH1 0x0 DUP4 ADD DUP5 PUSH2 0x1F4 JUMP JUMPDEST SWAP3 SWAP2 POP POP JUMP INVALID LOG2 PUSH5 0x6970667358 0x22 SLT KECCAK256 0xC0 LOG0 0xDF 0x21 PUSH0 SHR EXP CALLER DUP9 PUSH30 0x2F060CA54C1F64373BA07F3E913465F9C3613611DC5164736F6C63430008 SHR STOP CALLER "
        },
        "methodIdentifiers": {
          "EVM_EXTRA_ARGS_V1_TAG()": "3ab8c0d0",
          "GENERIC_EXTRA_ARGS_V2_TAG()": "7498e355",
          "SVM_ACCOUNT_BYTE_SIZE()": "71953f60",
          "SVM_EXTRA_ARGS_MAX_ACCOUNTS()": "1ac428f8",
          "SVM_EXTRA_ARGS_V1_TAG()": "a5dd87d8",
          "SVM_MESSAGING_ACCOUNTS_OVERHEAD()": "5dd8ee3e",
          "SVM_TOKEN_TRANSFER_DATA_OVERHEAD()": "9713cbbd"
        }
      }
    }
  }
}